{
  "contractName": "FilmChainTokenSales",
  "abi": [
    {
      "inputs": [
        {
          "internalType": "contract FilmChainToken",
          "name": "_tokenAddress",
          "type": "address"
        },
        {
          "internalType": "uint256",
          "name": "_tokenPrice",
          "type": "uint256"
        }
      ],
      "payable": false,
      "stateMutability": "nonpayable",
      "type": "constructor"
    },
    {
      "anonymous": false,
      "inputs": [
        {
          "indexed": true,
          "internalType": "address",
          "name": "beneficiary",
          "type": "address"
        },
        {
          "indexed": false,
          "internalType": "uint256",
          "name": "_value",
          "type": "uint256"
        }
      ],
      "name": "TokensSell",
      "type": "event"
    },
    {
      "constant": true,
      "inputs": [],
      "name": "numSoldTokens",
      "outputs": [
        {
          "internalType": "uint256",
          "name": "",
          "type": "uint256"
        }
      ],
      "payable": false,
      "stateMutability": "view",
      "type": "function"
    },
    {
      "constant": true,
      "inputs": [],
      "name": "tokenAddress",
      "outputs": [
        {
          "internalType": "contract FilmChainToken",
          "name": "",
          "type": "address"
        }
      ],
      "payable": false,
      "stateMutability": "view",
      "type": "function"
    },
    {
      "constant": true,
      "inputs": [],
      "name": "tokenPrice",
      "outputs": [
        {
          "internalType": "uint256",
          "name": "",
          "type": "uint256"
        }
      ],
      "payable": false,
      "stateMutability": "view",
      "type": "function"
    },
    {
      "constant": false,
      "inputs": [
        {
          "internalType": "uint256",
          "name": "_value",
          "type": "uint256"
        }
      ],
      "name": "buyTokens",
      "outputs": [],
      "payable": true,
      "stateMutability": "payable",
      "type": "function"
    },
    {
      "constant": false,
      "inputs": [],
      "name": "exitSales",
      "outputs": [],
      "payable": false,
      "stateMutability": "nonpayable",
      "type": "function"
    }
  ],
  "bytecode": "0x608060405234801561001057600080fd5b506040516107803803806107808339818101604052604081101561003357600080fd5b810190808051906020019092919080519060200190929190505050336000806101000a81548173ffffffffffffffffffffffffffffffffffffffff021916908373ffffffffffffffffffffffffffffffffffffffff16021790555081600160006101000a81548173ffffffffffffffffffffffffffffffffffffffff021916908373ffffffffffffffffffffffffffffffffffffffff160217905550806002819055505050610699806100e76000396000f3fe60806040526004361061004a5760003560e01c80633610724e1461004f5780633b34a4a51461007d5780637ff9b596146100945780639d76ea58146100bf578063a0d44c4a14610116575b600080fd5b61007b6004803603602081101561006557600080fd5b8101908080359060200190929190505050610141565b005b34801561008957600080fd5b5061009261038c565b005b3480156100a057600080fd5b506100a9610606565b6040518082815260200191505060405180910390f35b3480156100cb57600080fd5b506100d461060c565b604051808273ffffffffffffffffffffffffffffffffffffffff1673ffffffffffffffffffffffffffffffffffffffff16815260200191505060405180910390f35b34801561012257600080fd5b5061012b610632565b6040518082815260200191505060405180910390f35b61014d81600254610638565b341461015857600080fd5b80600160009054906101000a900473ffffffffffffffffffffffffffffffffffffffff1673ffffffffffffffffffffffffffffffffffffffff166370a08231306040518263ffffffff1660e01b8152600401808273ffffffffffffffffffffffffffffffffffffffff1673ffffffffffffffffffffffffffffffffffffffff16815260200191505060206040518083038186803b1580156101f857600080fd5b505afa15801561020c573d6000803e3d6000fd5b505050506040513d602081101561022257600080fd5b8101908080519060200190929190505050101561023e57600080fd5b600160009054906101000a900473ffffffffffffffffffffffffffffffffffffffff1673ffffffffffffffffffffffffffffffffffffffff1663a9059cbb33836040518363ffffffff1660e01b8152600401808373ffffffffffffffffffffffffffffffffffffffff1673ffffffffffffffffffffffffffffffffffffffff16815260200182815260200192505050602060405180830381600087803b1580156102e757600080fd5b505af11580156102fb573d6000803e3d6000fd5b505050506040513d602081101561031157600080fd5b810190808051906020019092919050505061032b57600080fd5b806003600082825401925050819055503373ffffffffffffffffffffffffffffffffffffffff167fcb1913a166c275800ee1bc5548f97de4caa1abe905d5e0fadd17ce3da2773e73826040518082815260200191505060405180910390a250565b6000809054906101000a900473ffffffffffffffffffffffffffffffffffffffff1673ffffffffffffffffffffffffffffffffffffffff163373ffffffffffffffffffffffffffffffffffffffff16146103e557600080fd5b600160009054906101000a900473ffffffffffffffffffffffffffffffffffffffff1673ffffffffffffffffffffffffffffffffffffffff1663a9059cbb6000809054906101000a900473ffffffffffffffffffffffffffffffffffffffff16600160009054906101000a900473ffffffffffffffffffffffffffffffffffffffff1673ffffffffffffffffffffffffffffffffffffffff166370a08231306040518263ffffffff1660e01b8152600401808273ffffffffffffffffffffffffffffffffffffffff1673ffffffffffffffffffffffffffffffffffffffff16815260200191505060206040518083038186803b1580156104e457600080fd5b505afa1580156104f8573d6000803e3d6000fd5b505050506040513d602081101561050e57600080fd5b81019080805190602001909291905050506040518363ffffffff1660e01b8152600401808373ffffffffffffffffffffffffffffffffffffffff1673ffffffffffffffffffffffffffffffffffffffff16815260200182815260200192505050602060405180830381600087803b15801561058857600080fd5b505af115801561059c573d6000803e3d6000fd5b505050506040513d60208110156105b257600080fd5b81019080805190602001909291905050506105cc57600080fd5b6000809054906101000a900473ffffffffffffffffffffffffffffffffffffffff1673ffffffffffffffffffffffffffffffffffffffff16ff5b60025481565b600160009054906101000a900473ffffffffffffffffffffffffffffffffffffffff1681565b60035481565b600080821480610655575082828385029250828161065257fe5b04145b61065e57600080fd5b9291505056fea265627a7a7231582042fbe2b9f44ec38774799c8e503e70b2beaaa4c370cb1764eddb0fa01b710aff64736f6c63430005100032",
  "source": "pragma solidity ^0.5.16;\nimport \"./FilmChainToken.sol\";\n\ncontract FilmChainTokenSales {\n\n  address payable manager;\n  FilmChainToken public tokenAddress;\n  uint256 public tokenPrice;\n  uint256 public numSoldTokens;\n\n  event TokensSell(address indexed beneficiary, uint256 _value);\n\n  modifier restricted() {\n        require(msg.sender == manager);\n        _;\n  }\n\n  constructor(FilmChainToken _tokenAddress, uint256 _tokenPrice) public {\n      // admin\n      manager = msg.sender;\n      tokenAddress = _tokenAddress;\n      tokenPrice = _tokenPrice;\n  }\n\n  function times(uint a, uint b) internal pure returns (uint c) {\n    require(b == 0 || (c = a * b) / b == a);\n  }\n\n  function buyTokens(uint256 _value) public payable {\n    require(msg.value == times(_value, tokenPrice));\n\n    require(tokenAddress.balanceOf(address(this)) >= _value);\n\n    require(tokenAddress.transfer(msg.sender, _value));\n\n    // number of tokens sold\n    numSoldTokens += _value;\n    emit TokensSell(msg.sender, _value);\n  }\n\n  function exitSales() public restricted {\n    require(tokenAddress.transfer(manager, tokenAddress.balanceOf(address(this))));\n    selfdestruct(address(manager));\n  }\n\n\n}\n",
  "sourcePath": "/Users/theerathat2008/filmchain_token_sale/contracts/FilmChainTokenSales.sol",
  "compiler": {
    "name": "solc",
    "version": "0.5.16+commit.9c3226ce.Emscripten.clang"
  },
  "schemaVersion": "3.0.23",
  "updatedAt": "2020-06-22T13:21:53.557Z",
  "networkType": "ethereum",
  "devdoc": {
    "methods": {}
  },
  "userdoc": {
    "methods": {}
  }
}